:020000040000FA
:0600000002EF09F01200FE
:020006001200E6
:0600080094EF04F0120069
:02000E000200EE
:1000100030120000EA01000004000000201200007D
:08002000C30100001000000004
:08002800D9CFE6FFE552E7CF56
:10003000D9FF1200D9CFE6FFE1CFD9FFFD0EDBCF0C
:10004000E9FFFE0EDBCFEAFFEECF0BF0EFCF0CF0B7
:100050002E0E0B1801E10C5017E0290E0B1801E1D0
:100060000C5001E197D0240E0B1801E10C5001E176
:1000700091D01F0E0B1801E10C5006E00B5001E06F
:1000800010D10C5001E00DD1FD0EDBCFE9FFFE0ECB
:10009000DBCFEAFF030EE926000EEA22EECF0FF0D7
:1000A000EECF10F0EECF11F0EFCF12F00FC0E6FF61
:1000B00010C0E6FF11C0E6FF12C0E6FF84EC05F0B9
:1000C000E552E7CF12F0E552E7CF11F0E552E7CF66
:1000D00010F0E552E7CF0FF000010F50045C0B6EFB
:1000E000105005580C6E115006580D6E12500758DE
:1000F0000E6E920E0B5C000E0C58000E0D58000E8A
:100100000E5816E2FD0EDBCFE9FFFE0EDBCFEAFF55
:10011000020EE926000EEA22010EEF6E6AEC08F0EC
:10012000FD0EDBCFE9FFFE0EDBCFEAFF1F0EB7D0DF
:10013000FD0EDBCFE9FFFE0EDBCFEAFF020EE92664
:10014000000EEA22020EEF6E68EC08F084EC05F077
:1001500004C00BF005C00CF006C00DF007C00EF097
:10016000FD0EDBCFE9FFFE0EDBCFEAFF030EE92633
:10017000000EEA2204C0EEFF0CC0EEFF0DC0EEFF41
:100180000EC0EEFFFD0EDBCFE9FFFE0EDBCFEAFF78
:10019000240E85D0FD0EDBCFE9FFFE0EDBCFEAFF9C
:1001A000030EE926000EEA22EECF0FF0EECF10F09C
:1001B000EECF11F0EFCF12F00FC0E6FF10C0E6FF58
:1001C00011C0E6FF12C0E6FF84EC05F0E552E7CF70
:1001D00012F0E552E7CF11F0E552E7CF10F0E5520B
:1001E000E7CF0FF000010F50045C0B6E1050055864
:1001F0000C6E115006580D6E125007580E6E920E6E
:100200000B5C000E0C58000E0D58000E0E5816E236
:10021000FD0EDBCFE9FFFE0EDBCFEAFF020EE92683
:10022000000EEA22020EEF6E68EC08F0FD0EDBCF46
:10023000E9FFFE0EDBCFEAFF290E31D0FD0EDBCF4A
:10024000E9FFFE0EDBCFEAFF020EE926000EEA22EE
:10025000010EEF6E6AEC08F084EC05F004C00BF0C0
:1002600005C00CF006C00DF007C00EF0FD0EDBCF90
:10027000E9FFFE0EDBCFEAFF030EE926000EEA22BD
:1002800004C0EEFF0CC0EEFF0DC0EEFF0EC0EEFF8F
:10029000FD0EDBCFE9FFFE0EDBCFEAFF2E0EEE6E8A
:0A02A000ED6AE552E7CFD9FF120026
:0602AA00D9CFE6FFE1CF11
:1002B000D9FF060EE126FB0EDBCFDEFFDBCFDDFF35
:1002C000020EDB6A030EDB6A040EDB6A050EDB6AD4
:1002D000DECFE9FFDDCFEAFFEE6AED6AFD0EDBCF90
:1002E000E9FFFE0EDBCFEAFFEE50ED1005E1FD0E5B
:1002F000DBCFE9FFFE0E91D0FD0EDBCFE9FFFE0E56
:10030000DBCFEAFF020EEECFDBFF030EEDCFDBFF0C
:10031000D950020FE96EDACFEAFFEE50ED1001E19D
:1003200078D0F90EDBCF0DF0FA0EDBCF0EF0020E17
:10033000DBCFE6FF030EDBCFE6FFDECFE6FFDDCF50
:10034000E6FF04D00EC0FAFF0D50F96EFBDFE55258
:10035000E552E552E552F3CF0BF0F4CF0CF0F35039
:10036000F41046E0020EDBCF0BF0030EDBCF0CF0F7
:10037000FD0EDBCFE9FFFE0EDBCFEAFFEECF0DF087
:10038000EFCF0EF00D500B181EE10E500C181BE1B4
:10039000FD0EDBCFE9FFFE0EDBCFEAFFEECF0BF069
:1003A000EECF0CF0EECF0DF0DECFE9FFDDCFEAFFB0
:1003B0000BC0EEFF0CC0EDFFFD0EDBCFE9FFFE0E24
:1003C000DBCFEAFF3AD0040EDBCFE9FF050EDBCF2F
:1003D000EAFFDECFEEFFDDCFEDFFDECFE9FFDDCFC1
:1003E000EAFF020EDBCFEEFF030EDBCFEDFF29D0DD
:1003F000020EDBCF06F0030EDBCF07F0040E06C0C3
:10040000DBFF050E07C0DBFF020EDBCFE9FF030EAB
:1004100077D7040EDBCFE9FF050EDBCFEAFFDECF97
:10042000EEFFDDCFEDFFFD0EDBCFE9FFFE0EDBCFF4
:10043000EAFF020EE926000EEA22DECFEEFFDDCF54
:10044000EDFF060EE15C02E2E16AE552E16EE55283
:10045000E7CFD9FF1200D9CFE6FFE1CFD9FF020ED7
:10046000E126FD0EDBCFE9FFFE0EDBCFEAFFEECF8C
:10047000DEFFEDCFDDFFD9CFE9FFDACFEAFFEE50A7
:10048000ED1025E0DECFE9FFDDCFEAFFEECF0BF088
:10049000EFCF0CF0FD0EDBCFE9FFFE0EDBCFEAFF66
:1004A0000BC0EEFF0CC0EDFFDECFE9FFDDCFEAFFB2
:1004B000EE50ED100CE1FD0EDBCFE9FFFE0EDBCFC1
:1004C000EAFF020EE926000EEA22EE6AED6ADECFAE
:1004D0000BF0DDCF0CF00BC0F3FF0CC0F4FF020EED
:1004E000E15C02E2E16AE552E16EE552E7CFD9FF55
:0204F0001200F8
:0E04F200D9CFE6FFE1CFD9FFFD0EDBCFE9FF4A
:10050000FE0EDBCFEAFFEF6AE552E7CFD9FF12001C
:10051000800EE66E030EE66EE66A05EC08F0E55224
:10052000E552E552959083801200D9CFE6FFE1CFE6
:10053000D9FFFD0EDBCFE9FFFE0EDBCFEAFFEF5068
:10054000010A37E0010A01E0C9D0E2DFFD0EDBCF8E
:10055000E9FFFE0EDBCFEAFF050EE926000EEA22D8
:10056000EF6A84EC05F004C00BF005C00CF006C087
:100570000DF007C00EF0FD0EDBCFE9FFFE0EDBCF66
:10058000EAFFEE5204C0EEFF0CC0EEFF0DC0EEFF1E
:100590000EC0EEFFFD0EDBCFE9FFFE0EDBCFEAFF64
:1005A000050EE926000EEA22EF50E66EA2D8E552CB
:1005B0008CD0FD0EDBCFE9FFFE0EDBCFEAFFEE5263
:1005C000EECF0FF0EECF10F0EECF11F0EFCF12F034
:1005D0000FC0E6FF10C0E6FF11C0E6FF12C0E6FF45
:1005E00084EC05F0E552E7CF12F0E552E7CF11F0C9
:1005F000E552E7CF10F0E552E7CF0FF000010F50C2
:10060000045C0B6E105005580C6E115006580D6EA0
:10061000125007580E6E920E0B5C000E0C58000E16
:100620000D58000E0E5851E3FD0EDBCFE9FFFE0E14
:10063000DBCFEAFF050EE926000EEA22EF2AFD0EC7
:10064000DBCFE9FFFE0EDBCFEAFF050EE926000E49
:10065000EA22EFCF0BF00F0EE76E0B18E8AE02D0D8
:10066000E73402D0E7500B5C0BE3FD0EDBCFE9FF74
:10067000FE0EDBCFEAFF050EE926000EEA22EF6A46
:10068000FD0EDBCFE9FFFE0EDBCFEAFF050EE9260C
:10069000000EEA22EF50E66E2CD8E55284EC05F00D
:1006A00005C00CF006C00DF007C00EF0FD0EDBCF4C
:1006B000E9FFFE0EDBCFEAFFEE5204C0EEFF0CC0F6
:1006C000EEFF0DC0EEFF0EC0EEFFFD0EDBCFE9FF2B
:1006D000FE0EDBCFEAFF010EEF6E07D0FD0EDBCF83
:1006E000E9FFFE0EDBCFEAFFEF6AE552E7CFD9FF65
:1006F0001200D9CFE6FFE1CFD9FFFE0EDBCFE9FF35
:10070000EA6AE9BEEA68C30EE926010EEA22EF5062
:10071000E66E8BEC08F0E552E552E7CFD9FF120008
:10072000D9CFE6FFE1CFD9FFFB0EDBCF0BF0FC0EFC
:10073000DBCF0CF00B0E0C02F3CF0CF00B02F450DD
:100740000C26FD0EDB50F324E96EFE0EDB500C2070
:10075000EA6EEE6AED6AFB0EDBCF0BF0FC0EDBCF30
:100760000CF00B0E0C02F3CF0CF00B02F3CF0BF0DE
:10077000F4500C26FD0EDB50F324E96EFE0EDB5028
:100780000C20EA6E020EE926000EEA22EF6AFB0E4A
:10079000DBCF0BF0FC0EDBCF0CF00B0E0C02F3CF1B
:1007A0000CF00B02F3CF0BF0F4500C26FD0EDB50D7
:1007B000F324E96EFE0EDB500C20EA6E090EE926EA
:1007C000000EEA22F90EDBCFEEFFFA0EDBCFEDFFD3
:1007D000FB0EDBCF0DF0FC0EDBCF0EF00D06000E96
:1007E0000E5A500E0E02F3CF0EF00D02F3CF0DF0A5
:1007F000F4500E26230E0D26010E0E22FB0EDBCF2B
:100800000BF0FC0EDBCF0CF00B0E0C02F3CF0CF058
:100810000B02F3CF0BF0F4500C26FD0EDB50F3244B
:10082000E96EFE0EDB500C20EA6E050EE926000E86
:10083000EA220DC0EEFF0EC0EDFF1C0EE66E0D0E9F
:10084000E66EFB0EDBCF0BF0FC0EDBCF0CF00B0EDD
:100850000C02F3CF0CF00B02F3CF0BF0F4500C268C
:10086000020E0B26010E0C220BC0E6FF0CC0E6FFA9
:10087000EA0EE66E010EE66E55EC01F00D6E060E08
:10088000E15E0D50E552E7CFD9FF12000101020EE3
:10089000006F010E016F00C1E9FFEA6EEE6AED6ABA
:1008A00000C1E9FF01C1EAFF020EE926000EEA22BB
:1008B000EF6AF40EE66E080EE66E010EE66EE66A6C
:1008C000020EE66E010EE66E2BDF0B6E060EE15E8B
:1008D0000B500E0EE66E090EE66E020EE66EE66A2E
:1008E000020EE66E010EE66E1BDF0B6E060EE15E7B
:1008F0000B501200D9CFE6FFE1CFD9FF020EE1265F
:10090000DE6ADD6ADF2A010EFDE3DB2AFBD7D9CFE1
:10091000E6FFE1CFD9FF020EE126DE68DD6ADF06E1
:08092000010EFDE2DB06FBD72E
:08092800D8CFE4FFE0CFE4FFAB
:10093000E46EDACFE4FFE2CFDAFFE9CFE4FFEACFFB
:10094000E4FFF6CFE4FFF7CFE4FFF5CFE4FFF3CF0A
:10095000E4FFF4CFE4FFFACFE4FF00EE00F00B0E6B
:10096000E80403E3EECFE4FFFBD700EE0BF0080E44
:10097000E80403E3EECFE4FFFBD7E652D9CFE6FF6E
:10098000E1CFD9FF020EE1260101D32B000ED423C3
:10099000D523D623C7D8FECFDAF1FDCFDBF1DAC1FC
:1009A00013F013C014F0136A0101DB51010113109D
:1009B000DC6F14C0DDF100C1E9FF01C1EAFF090EDF
:1009C000DCC1EBFF0A0EDDC1EBFFE1CFDEF1E2CFD0
:1009D000DFF100C1E9FF01C1EAFF050EDEC1EBFF57
:1009E000060EDFC1EBFFEA0EE66E010EE66E2BECA3
:1009F00002F0E552E552F3CFDEFFF4CFDDFF1C0E2F
:100A0000E66E0D0EE66E00C1E6FF01C1E6FFEA0EDE
:100A1000E66E010EE66E55EC01F0136E060EE15E19
:100A20001350DECF00F1DDCF01F100C1E9FF01C1BC
:100A3000EAFF090EE926000EEA22EFCFDBF100C142
:100A4000E9FF01C1EAFF090EE926000EEA22EECF16
:100A500013F0EFCF14F014C013F0146A13C0DAF1DE
:100A6000DAC1E8FFFE6EDBC1E8FFFD6E00C1E9FF01
:100A700001C1EAFF050EE926000EEA22EECFDEF103
:100A8000EDCFDFF1DEC1E1FFDFC1E2FF020EE15C8D
:100A900002E2E16AE552E16EE552E7CFD9FFE552A5
:100AA00000EE12F0080EE80403E3E5CFEDFFFBD7FC
:100AB00000EE0AF00B0EE80403E3E5CFEDFFFBD7F1
:100AC000E5CFFAFFE5CFF4FFE5CFF3FFE5CFF5FF84
:100AD000E5CFF7FFE5CFF6FFE5CFEAFFE5CFE9FF8A
:100AE000E5CFDAFFE550E5CFE0FFE5CFD8FF100016
:100AF0000101D36BD46BD56BD66BF28ED20EE66E42
:100B0000A9EC08F0E5521200D3C104F0D4C105F0FD
:100B1000D5C106F0D6C107F01200F250040B01E077
:080B2000010E1200F294120014
:080B2800D9CFE6FFE1CFD9FFB0
:100B3000FD0EDBCFE9FFFE0EDBCFEAFFEF6AE552E9
:100B4000E7CFD9FF1200D9CFE6FFE1CFD9FFFD0EE5
:100B5000DBCFE9FFFE0EDBCFEAFFEF50020A6DE0CC
:100B6000020A48E0010A01E0CED0FD0EDBCFE9FF2A
:100B7000FE0EDBCFEAFFEE52EECF0FF0EECF10F01D
:100B8000EECF11F0EFCF12F00FC0E6FF10C0E6FF7E
:100B900011C0E6FF12C0E6FF84EC05F0E552E7CF96
:100BA00012F0E552E7CF11F0E552E7CF10F0E55231
:100BB000E7CF0FF000010F50045C0B6E105005588A
:100BC0000C6E115006580D6E125007580E6EE80E3E
:100BD0000B5C010E0C58000E0D58000E0E5825E34C
:100BE00068EC08F0FD0EDBCFE9FFFE0EDBCFEAFF7D
:100BF000020E67D084EC05F004C00BF005C00CF0C9
:100C000006C00DF007C00EF0FD0EDBCFE9FFFE0EB3
:100C1000DBCFEAFFEE5204C0EEFF0CC0EEFF0DC0CA
:100C2000EEFF0EC0EEFF66EC08F0FD0EDBCFE9FF35
:100C3000FE0EDBCFEAFF010E64D0FD0EDBCFE9FF35
:100C4000FE0EDBCFEAFFEE52EECF0FF0EECF10F04C
:100C5000EECF11F0EFCF12F00FC0E6FF10C0E6FFAD
:100C600011C0E6FF12C0E6FF84EC05F0E552E7CFC5
:100C700012F0E552E7CF11F0E552E7CF10F0E55260
:100C8000E7CF0FF000010F50045C0B6E10500558B9
:100C90000C6E115006580D6E125007580E6EE80E6D
:100CA0000B5C010E0C58000E0D58000E0E5822E37E
:100CB0006AEC08F0FD0EDBCFE9FFFE0EDBCFEAFFAA
:100CC000010EEF6E84EC05F005C00CF006C00DF0CF
:100CD00007C00EF0FD0EDBCFE9FFFE0EDBCFEAFF13
:100CE000EE5204C0EEFF0CC0EEFF0DC0EEFF0EC0D2
:100CF000EEFF10D0FD0EDBCFE9FFFE0EDBCFEAFFEB
:100D0000020EEF6E07D0FD0EDBCFE9FFFE0EDBCF4C
:0C0D1000EAFFEF6AE552E7CFD9FF1200BE
:040D1C00D9CFE6FF46
:100D2000E1CFD9FF040EE126FD0EDBCFDEFFDBCFE6
:100D3000DDFFFB0EDBCF06F0FC0EDBCF07F0020E73
:100D400006C0DBFF030E07C0DBFFDECFE9FFDDCF10
:100D5000EAFF020EE926000EEA22EFCF0BF0020EA8
:100D6000DBCFE9FF030EDBCFEAFF020EE926000E20
:100D7000EA22EF50E76E0B18E8AE02D0E73402D05B
:100D8000E7500B5C03E2010EF36E01D0F36AF46AE4
:100D9000040EE15C02E2E16AE552E16EE552E7CF62
:100DA000D9FF1200D9CFE6FFE1CFD9FFFD0EDBCF8F
:100DB0000BF0FE0EDBCF0CF0FB0EDB500B1807E147
:100DC000FC0EDB500C1803E1010EF36E01D0F36A48
:0A0DD000F46AE552E7CFD9FF1200E4
:060DDA000E0EF66E000E85
:100DE000F76E000EF86E01010900F550E56F09007D
:100DF000F550E66F03E1E56701D03DD00900F550FD
:100E0000E06F0900F550E16F0900F550E26F09004D
:100E10000900F550E96E0900F550EA6E0900090075
:100E20000900F550E36F0900F550E46F090009006F
:100E3000F6CFE7F1F7CFE8F1F8CFE9F1E0C1F6FF3F
:100E4000E1C1F7FFE2C1F8FF0101E35302E1E4531E
:100E500007E00900F550EE6EE307F8E2E407F9D782
:100E6000E7C1F6FFE8C1F7FFE9C1F8FF0101E507B7
:080E7000000EE65BBFD7120083
:080E7800D9CFE6FFDACFE6FF57
:100E8000E1CFD9FFE2CFDAFFAC6AAB6AFD0EDBB08F
:100E9000AC88DBA202D0AC8CAB8CDBB4AC8EDBA616
:100EA00002D0AB8801D0AB8ADBB8AC849E98DBBAA9
:100EB000AB86DBAC02D09D8A01D09D9A9E9ADBAEB8
:100EC00002D09D8801D09D98FB0EDB50AF6EFB0ECB
:100ED000FC0EDBCF0CF00CC00BF00C6A0B50B06EAC
:100EE000AC8AAB8E949C948EAC50100B04E0AC504A
:100EF000800B01E1948CE552E5CFDAFFE7CFD9FF13
:020F00001200DD
:0E0F0200D9CFE6FFE1CFD9FF020EE12646EC83
:100F100004F078EC05F0DF2A010EFDE3DB2AFBD7B5
:100F2000D9CFE6FFE1CFD9FF0D0EE1268F0ED31406
:100F30007009D36E330EE66EE66A3C0EE66E3CEC4C
:100F400007F0E552E552E55278EC05F066EC08F062
:100F5000DE6ADD6AD950070FE66E000EDA20E66E13
:100F600079EC02F0E552E552D9CFE6FFDACFE6FFA1
:100F70001AEC00F0E552E552D950070FE66E000E6C
:0A0F8000DA20E66E95EC02F0EDD7E2
:060F8A00D9CFE6FFE1CF24
:100F9000D9FFFD0EDBCFE9FFFE0EDBCFEAFFEF50FE
:100FA000010A1AE0010A2DE19EAA2BD06CEC08F090
:100FB000E66EFD0EDBCFE9FFFE0EDBCFEAFFEE5261
:100FC000E552E750EF6EFD0EDBCFE9FFFE0EDBCF03
:100FD000EAFF010EEF6E15D0ACA213D0FD0EDBCFF1
:100FE000E9FFFE0EDBCFEAFFEE52EF50E66EC5ECF6
:100FF00008F0E552FD0EDBCFE9FFFE0EDBCFEAFF86
:0A100000EF6AE552E7CFD9FF1200B6
:06100A00D9CFE6FFDACFAA
:10101000E6FFE1CFD9FFE2CFDAFF3F0EC716C66A7F
:10102000FD0EDB50C612FB0EDB50C712FC0EDB5070
:10103000030A09E0010A04E0020A06E1C78C04D0B1
:10104000C78CC68801D0C688FD0EDB50050A05E0B6
:10105000010A05E19486928A03D0948601D0949681
:101060009488949AC68AE552E5CFDAFFE7CFD9FF94
:0210700012006C
:0E107200D9CFE6FFE1CFD9FF040EE126DE6AFA
:10108000DE6ADE6ADD6ADD52DD52D9CFE9FFDACFF2
:10109000EAFF100EEE5C270EEE58000EEE58000E22
:1010A000EE580AE2D9CFE9FFDACFEAFFEE2A000EC6
:1010B000EE22EE22EE22E9D7040EE15C02E2E16AC2
:1010C000E552E16EE552E7CFD9FF1200949012008D
:0810D0008280120082901200E0
:0810D800D9CFE6FFDACFE6FFF5
:1010E000E1CFD9FFE2CFDAFFE652F20E0101EE17AF
:1010F000ABAC03D0EE91ABB0EE81ABB4EE85ABB24E
:10110000EE87AE50DF6EDF50E552E552E5CFDAFFF5
:06111000E7CFD9FF120039
:0A111600D9CFE6FFDACFE6FFE1CF04
:10112000D9FFE2CFDAFFE652C950DF6E9E96C69E27
:10113000FD0EDB50C96EC6AE02D0FF0E03D09EA6D8
:10114000FED7000EE552E552E5CFDAFFE7CFD9FF33
:0211500012008B
:0E115200D9CFE6FFDACFE6FFE1CFD9FFE2CF3B
:10116000DAFFFD0EDB507F0BD56ED76AD66AF2949C
:10117000FD0EDBAE02D0F28A01D0F29AD58EE55296
:0A118000E5CFDAFFE7CFD9FF120038
:06118A00D9CFE6FFDACF29
:10119000E6FFE1CFD9FFE2CFDAFFACAC04D0AC90F0
:1011A0000101EEB3AC80FD0EDB50AD6EE552E5CF34
:0811B000DAFFE7CFD9FF1200BE
:0811B800D9CFE6FFE1CFD9FF1A
:1011C000E6529EAAFED76CEC08F0DF6EACA2FED70A
:1011D000DFCFE6FFC5EC08F0E552E552E552E7CF78
:0411E000D9FF120021
:0C11E400000EF36E00EE00F0060E01D8C5
:1011F0001200EA6002D0EE6AFCD7F350E9601200F8
:04120000EE6AFCD7BF
:0C12040015EE00F025EE00F0F86A0A9CE0
:10121000EDEC06F003EC00F081EC07F0FBD71200D8
:10122000EE82DCD6B2767EC2FEF6FA3E6C9E7C780A
:0412300000000000BA
:020000040030CA
:0100010008F6
:010002001EDF
:010003001EDE
:0100060001F8
:00000001FF
